{
  "contractName": "RefundVault",
  "abi": [
    {
      "constant": true,
      "inputs": [],
      "name": "wallet",
      "outputs": [
        {
          "name": "",
          "type": "address"
        }
      ],
      "payable": false,
      "stateMutability": "view",
      "type": "function"
    },
    {
      "constant": true,
      "inputs": [],
      "name": "owner",
      "outputs": [
        {
          "name": "",
          "type": "address"
        }
      ],
      "payable": false,
      "stateMutability": "view",
      "type": "function"
    },
    {
      "constant": true,
      "inputs": [],
      "name": "state",
      "outputs": [
        {
          "name": "",
          "type": "uint8"
        }
      ],
      "payable": false,
      "stateMutability": "view",
      "type": "function"
    },
    {
      "constant": true,
      "inputs": [
        {
          "name": "",
          "type": "address"
        }
      ],
      "name": "deposited",
      "outputs": [
        {
          "name": "",
          "type": "uint256"
        }
      ],
      "payable": false,
      "stateMutability": "view",
      "type": "function"
    },
    {
      "constant": false,
      "inputs": [
        {
          "name": "newOwner",
          "type": "address"
        }
      ],
      "name": "transferOwnership",
      "outputs": [],
      "payable": false,
      "stateMutability": "nonpayable",
      "type": "function"
    },
    {
      "inputs": [
        {
          "name": "_wallet",
          "type": "address"
        }
      ],
      "payable": false,
      "stateMutability": "nonpayable",
      "type": "constructor"
    },
    {
      "anonymous": false,
      "inputs": [],
      "name": "Closed",
      "type": "event"
    },
    {
      "anonymous": false,
      "inputs": [],
      "name": "RefundsEnabled",
      "type": "event"
    },
    {
      "anonymous": false,
      "inputs": [
        {
          "indexed": true,
          "name": "beneficiary",
          "type": "address"
        },
        {
          "indexed": false,
          "name": "weiAmount",
          "type": "uint256"
        }
      ],
      "name": "Refunded",
      "type": "event"
    },
    {
      "anonymous": false,
      "inputs": [
        {
          "indexed": true,
          "name": "previousOwner",
          "type": "address"
        },
        {
          "indexed": true,
          "name": "newOwner",
          "type": "address"
        }
      ],
      "name": "OwnershipTransferred",
      "type": "event"
    },
    {
      "constant": false,
      "inputs": [
        {
          "name": "investor",
          "type": "address"
        }
      ],
      "name": "deposit",
      "outputs": [],
      "payable": true,
      "stateMutability": "payable",
      "type": "function"
    },
    {
      "constant": false,
      "inputs": [],
      "name": "close",
      "outputs": [],
      "payable": false,
      "stateMutability": "nonpayable",
      "type": "function"
    },
    {
      "constant": false,
      "inputs": [],
      "name": "enableRefunds",
      "outputs": [],
      "payable": false,
      "stateMutability": "nonpayable",
      "type": "function"
    },
    {
      "constant": false,
      "inputs": [
        {
          "name": "investor",
          "type": "address"
        }
      ],
      "name": "refund",
      "outputs": [],
      "payable": false,
      "stateMutability": "nonpayable",
      "type": "function"
    }
  ],
  "bytecode": "0x608060405234801561001057600080fd5b50604051602080610616833981016040525160008054600160a060020a03191633600160a060020a03908116919091179091558116151561005057600080fd5b60028054600160a060020a031916600160a060020a03929092169190911760a060020a60ff021916905561058d806100896000396000f3006080604052600436106100985763ffffffff7c010000000000000000000000000000000000000000000000000000000060003504166343d726d6811461009d578063521eb273146100b45780638c52dc41146100e55780638da5cb5b146100fa578063c19d93fb1461010f578063cb13cddb14610148578063f2fde38b1461017b578063f340fa011461019c578063fa89401a146101b0575b600080fd5b3480156100a957600080fd5b506100b26101d1565b005b3480156100c057600080fd5b506100c96102ac565b60408051600160a060020a039092168252519081900360200190f35b3480156100f157600080fd5b506100b26102bb565b34801561010657600080fd5b506100c9610349565b34801561011b57600080fd5b50610124610358565b6040518082600281111561013457fe5b60ff16815260200191505060405180910390f35b34801561015457600080fd5b50610169600160a060020a0360043516610368565b60408051918252519081900360200190f35b34801561018757600080fd5b506100b2600160a060020a036004351661037a565b6100b2600160a060020a0360043516610412565b3480156101bc57600080fd5b506100b2600160a060020a0360043516610496565b60005433600160a060020a039081169116146101ec57600080fd5b60006002805460a060020a900460ff169081111561020657fe5b1461021057600080fd5b6002805474ff00000000000000000000000000000000000000001916740200000000000000000000000000000000000000001790556040517f1cdde67b72a90f19919ac732a437ac2f7a10fc128d28c2a6e525d89ce5cd9d3a90600090a1600254604051600160a060020a039182169130163180156108fc02916000818181858888f193505050501580156102a9573d6000803e3d6000fd5b50565b600254600160a060020a031681565b60005433600160a060020a039081169116146102d657600080fd5b60006002805460a060020a900460ff16908111156102f057fe5b146102fa57600080fd5b6002805474ff0000000000000000000000000000000000000000191660a060020a1790556040517f599d8e5a83cffb867d051598c4d70e805d59802d8081c1c7d6dffc5b6aca2b8990600090a1565b600054600160a060020a031681565b60025460a060020a900460ff1681565b60016020526000908152604090205481565b60005433600160a060020a0390811691161461039557600080fd5b600160a060020a03811615156103aa57600080fd5b60008054604051600160a060020a03808516939216917f8be0079c531659141344cd1fd0a4f28419497f9722a3daafe3b4186f6b6457e091a36000805473ffffffffffffffffffffffffffffffffffffffff1916600160a060020a0392909216919091179055565b60005433600160a060020a0390811691161461042d57600080fd5b60006002805460a060020a900460ff169081111561044757fe5b1461045157600080fd5b600160a060020a03811660009081526001602052604090205461047a903463ffffffff61054b16565b600160a060020a03909116600090815260016020526040902055565b600060016002805460a060020a900460ff16908111156104b257fe5b146104bc57600080fd5b50600160a060020a038116600081815260016020526040808220805490839055905190929183156108fc02918491818181858888f19350505050158015610507573d6000803e3d6000fd5b50604080518281529051600160a060020a038416917fd7dee2702d63ad89917b6a4da9981c90c4d24f8c2bdfd64c604ecae57d8d0651919081900360200190a25050565b60008282018381101561055a57fe5b93925050505600a165627a7a723058204caa4a43b693739c0bfdca36688805ff4e86dab4825845d261103bd4dc8b46e70029",
  "source": "pragma solidity 0.4.23;\n\nimport './SafeMath.sol';\nimport './Ownable.sol';\n\n/**\n * @title RefundVault\n * @dev This contract is used for storing funds while a crowdsale\n * is in progress. Supports refunding the money if crowdsale fails,\n * and forwarding it if crowdsale is successful.\n */\ncontract RefundVault is Ownable {\n  using SafeMath for uint256;\n\n  enum State { Active, Refunding, Closed }\n\n  mapping (address => uint256) public deposited;\n  address public wallet;\n  State public state;\n\n  event Closed();\n  event RefundsEnabled();\n  event Refunded(address indexed beneficiary, uint256 weiAmount);\n\n  constructor(address _wallet) {\n    require(_wallet != 0x0);\n    wallet = _wallet;\n    state = State.Active;\n  }\n\n  function deposit(address investor) onlyOwner public payable {\n    require(state == State.Active);\n    deposited[investor] = deposited[investor].add(msg.value);\n  }\n\n  function close() onlyOwner public {\n    require(state == State.Active);\n    state = State.Closed;\n    emit Closed();\n    wallet.transfer(address(this).balance);\n  }\n\n  function enableRefunds() onlyOwner public {\n    require(state == State.Active);\n    state = State.Refunding;\n    emit RefundsEnabled();\n  }\n\n  function refund(address investor) public {\n    require(state == State.Refunding);\n    uint256 depositedValue = deposited[investor];\n    deposited[investor] = 0;\n    investor.transfer(depositedValue);\n    emit Refunded(investor, depositedValue);\n  }\n}\n",
  "sourcePath": "C:\\Users\\Zack\\Documents\\GitHub\\ZackToken\\contracts\\RefundVault.sol",
  "compiler": {
    "name": "solc",
    "version": "0.4.23+commit.124ca40d.Emscripten.clang"
  },
  "schemaVersion": "2.0.0",
  "updatedAt": "2018-04-28T06:48:49.406Z"
}