{
  "contractName": "ZackToken",
  "abi": [
    {
      "constant": true,
      "inputs": [],
      "name": "name",
      "outputs": [
        {
          "name": "",
          "type": "string"
        }
      ],
      "payable": false,
      "stateMutability": "view",
      "type": "function"
    },
    {
      "constant": false,
      "inputs": [
        {
          "name": "_spender",
          "type": "address"
        },
        {
          "name": "_value",
          "type": "uint256"
        }
      ],
      "name": "approve",
      "outputs": [
        {
          "name": "",
          "type": "bool"
        }
      ],
      "payable": false,
      "stateMutability": "nonpayable",
      "type": "function"
    },
    {
      "constant": true,
      "inputs": [],
      "name": "totalSupply",
      "outputs": [
        {
          "name": "",
          "type": "uint256"
        }
      ],
      "payable": false,
      "stateMutability": "view",
      "type": "function"
    },
    {
      "constant": false,
      "inputs": [
        {
          "name": "_from",
          "type": "address"
        },
        {
          "name": "_to",
          "type": "address"
        },
        {
          "name": "_value",
          "type": "uint256"
        }
      ],
      "name": "transferFrom",
      "outputs": [
        {
          "name": "",
          "type": "bool"
        }
      ],
      "payable": false,
      "stateMutability": "nonpayable",
      "type": "function"
    },
    {
      "constant": true,
      "inputs": [],
      "name": "decimals",
      "outputs": [
        {
          "name": "",
          "type": "uint8"
        }
      ],
      "payable": false,
      "stateMutability": "view",
      "type": "function"
    },
    {
      "constant": false,
      "inputs": [
        {
          "name": "_spender",
          "type": "address"
        },
        {
          "name": "_subtractedValue",
          "type": "uint256"
        }
      ],
      "name": "decreaseApproval",
      "outputs": [
        {
          "name": "",
          "type": "bool"
        }
      ],
      "payable": false,
      "stateMutability": "nonpayable",
      "type": "function"
    },
    {
      "constant": true,
      "inputs": [
        {
          "name": "_owner",
          "type": "address"
        }
      ],
      "name": "balanceOf",
      "outputs": [
        {
          "name": "balance",
          "type": "uint256"
        }
      ],
      "payable": false,
      "stateMutability": "view",
      "type": "function"
    },
    {
      "constant": true,
      "inputs": [],
      "name": "symbol",
      "outputs": [
        {
          "name": "",
          "type": "string"
        }
      ],
      "payable": false,
      "stateMutability": "view",
      "type": "function"
    },
    {
      "constant": true,
      "inputs": [],
      "name": "tokenOwner",
      "outputs": [
        {
          "name": "",
          "type": "address"
        }
      ],
      "payable": false,
      "stateMutability": "view",
      "type": "function"
    },
    {
      "constant": false,
      "inputs": [
        {
          "name": "_to",
          "type": "address"
        },
        {
          "name": "_value",
          "type": "uint256"
        }
      ],
      "name": "transfer",
      "outputs": [
        {
          "name": "",
          "type": "bool"
        }
      ],
      "payable": false,
      "stateMutability": "nonpayable",
      "type": "function"
    },
    {
      "constant": false,
      "inputs": [
        {
          "name": "_spender",
          "type": "address"
        },
        {
          "name": "_addedValue",
          "type": "uint256"
        }
      ],
      "name": "increaseApproval",
      "outputs": [
        {
          "name": "",
          "type": "bool"
        }
      ],
      "payable": false,
      "stateMutability": "nonpayable",
      "type": "function"
    },
    {
      "constant": true,
      "inputs": [
        {
          "name": "_owner",
          "type": "address"
        },
        {
          "name": "_spender",
          "type": "address"
        }
      ],
      "name": "allowance",
      "outputs": [
        {
          "name": "",
          "type": "uint256"
        }
      ],
      "payable": false,
      "stateMutability": "view",
      "type": "function"
    },
    {
      "inputs": [
        {
          "name": "_totalSupply",
          "type": "uint256"
        },
        {
          "name": "_owner",
          "type": "address"
        }
      ],
      "payable": false,
      "stateMutability": "nonpayable",
      "type": "constructor"
    },
    {
      "anonymous": false,
      "inputs": [
        {
          "indexed": false,
          "name": "ownerToLog",
          "type": "address"
        }
      ],
      "name": "LogOwner",
      "type": "event"
    },
    {
      "anonymous": false,
      "inputs": [
        {
          "indexed": true,
          "name": "owner",
          "type": "address"
        },
        {
          "indexed": true,
          "name": "spender",
          "type": "address"
        },
        {
          "indexed": false,
          "name": "value",
          "type": "uint256"
        }
      ],
      "name": "Approval",
      "type": "event"
    },
    {
      "anonymous": false,
      "inputs": [
        {
          "indexed": true,
          "name": "from",
          "type": "address"
        },
        {
          "indexed": true,
          "name": "to",
          "type": "address"
        },
        {
          "indexed": false,
          "name": "value",
          "type": "uint256"
        }
      ],
      "name": "Transfer",
      "type": "event"
    }
  ],
  "bytecode": "0x608060405234801561001057600080fd5b50604051604080610985833981016040818152825160209384015160038054600160a060020a031916600160a060020a0380841691909117918290551684529151909391927f2e6a5233203ef57f0bc3f27a09ec8db49caa33bdf9dcac109a226904362ca0d892908290030190a1670de0b6b3a764000082026001819055600160a060020a033316600081815260208181526040808320859055805194855251929391927fddf252ad1be2c89b69c2b068fc378daa952ba7f163c4a11628f55a4df523b3ef9281900390910190a35050610896806100ef6000396000f3006080604052600436106100b95763ffffffff7c010000000000000000000000000000000000000000000000000000000060003504166306fdde0381146100be578063095ea7b31461014857806318160ddd1461018057806323b872dd146101a7578063313ce567146101d157806366188463146101fc57806370a082311461022057806395d89b4114610241578063a3e6761014610256578063a9059cbb14610287578063d73dd623146102ab578063dd62ed3e146102cf575b600080fd5b3480156100ca57600080fd5b506100d36102f6565b6040805160208082528351818301528351919283929083019185019080838360005b8381101561010d5781810151838201526020016100f5565b50505050905090810190601f16801561013a5780820380516001836020036101000a031916815260200191505b509250505060405180910390f35b34801561015457600080fd5b5061016c600160a060020a036004351660243561032d565b604080519115158252519081900360200190f35b34801561018c57600080fd5b50610195610397565b60408051918252519081900360200190f35b3480156101b357600080fd5b5061016c600160a060020a036004358116906024351660443561039d565b3480156101dd57600080fd5b506101e661051d565b6040805160ff9092168252519081900360200190f35b34801561020857600080fd5b5061016c600160a060020a0360043516602435610522565b34801561022c57600080fd5b50610195600160a060020a036004351661061b565b34801561024d57600080fd5b506100d3610636565b34801561026257600080fd5b5061026b61066d565b60408051600160a060020a039092168252519081900360200190f35b34801561029357600080fd5b5061016c600160a060020a036004351660243561067c565b3480156102b757600080fd5b5061016c600160a060020a0360043516602435610775565b3480156102db57600080fd5b50610195600160a060020a0360043581169060243516610817565b60408051808201909152600a81527f5a61636b20546f6b656e00000000000000000000000000000000000000000000602082015281565b600160a060020a03338116600081815260026020908152604080832094871680845294825280832086905580518681529051929493927f8c5be1e5ebec7d5bd14f71427d1e84f3dd0314c0f7b2291e5b200ac8c7c3b925929181900390910190a350600192915050565b60015490565b6000600160a060020a03831615156103b457600080fd5b600160a060020a0384166000908152602081905260409020548211156103d957600080fd5b600160a060020a038085166000908152600260209081526040808320339094168352929052205482111561040c57600080fd5b600160a060020a038416600090815260208190526040902054610435908363ffffffff61084216565b600160a060020a03808616600090815260208190526040808220939093559085168152205461046a908363ffffffff61085416565b600160a060020a03808516600090815260208181526040808320949094558783168252600281528382203390931682529190915220546104b0908363ffffffff61084216565b600160a060020a038086166000818152600260209081526040808320338616845282529182902094909455805186815290519287169391927fddf252ad1be2c89b69c2b068fc378daa952ba7f163c4a11628f55a4df523b3ef929181900390910190a35060019392505050565b601281565b600160a060020a0333811660009081526002602090815260408083209386168352929052908120548083111561057f57600160a060020a0333811660009081526002602090815260408083209388168352929052908120556105b6565b61058f818463ffffffff61084216565b600160a060020a033381166000908152600260209081526040808320938916835292905220555b600160a060020a0333811660008181526002602090815260408083209489168084529482529182902054825190815291517f8c5be1e5ebec7d5bd14f71427d1e84f3dd0314c0f7b2291e5b200ac8c7c3b9259281900390910190a35060019392505050565b600160a060020a031660009081526020819052604090205490565b60408051808201909152600481527f5a41434b00000000000000000000000000000000000000000000000000000000602082015281565b600354600160a060020a031681565b6000600160a060020a038316151561069357600080fd5b600160a060020a0333166000908152602081905260409020548211156106b857600080fd5b600160a060020a0333166000908152602081905260409020546106e1908363ffffffff61084216565b600160a060020a033381166000908152602081905260408082209390935590851681522054610716908363ffffffff61085416565b600160a060020a03808516600081815260208181526040918290209490945580518681529051919333909316927fddf252ad1be2c89b69c2b068fc378daa952ba7f163c4a11628f55a4df523b3ef92918290030190a350600192915050565b600160a060020a0333811660009081526002602090815260408083209386168352929052908120546107ad908363ffffffff61085416565b600160a060020a0333811660008181526002602090815260408083209489168084529482529182902085905581519485529051929391927f8c5be1e5ebec7d5bd14f71427d1e84f3dd0314c0f7b2291e5b200ac8c7c3b9259281900390910190a350600192915050565b600160a060020a03918216600090815260026020908152604080832093909416825291909152205490565b60008282111561084e57fe5b50900390565b60008282018381101561086357fe5b93925050505600a165627a7a7230582052472e89168805a901e7476bf39ec9d49b502192af859bcd88b1f038d77b34f60029",
  "source": "pragma solidity 0.4.23;\n\n\nimport \"./StandardToken.sol\";\n//import \"./Ownable.sol\";\n\n/**\n * @title SimpleToken\n * @dev Very simple ERC20 Token example, where all tokens are pre-assigned to the creator.\n * Note they can later distribute these tokens as they wish using `transfer` and other\n * `StandardToken` functions.\n */\n contract ZackToken is StandardToken {\n\n   string public constant name = \"Zack Token\";\n   string public constant symbol = \"ZACK\";\n   uint8 public constant decimals = 18;\n   address public tokenOwner;\n\n   event LogOwner(address ownerToLog);\n\n   constructor(uint256 _totalSupply, address _owner) public {\n     //set owner (same address who deployed ico contract)\n     tokenOwner = _owner;\n     emit LogOwner(tokenOwner);\n     // Allocate fixed supply to token Creator\n     totalSupply_ = _totalSupply * (10 ** uint256(decimals));\n     balances[msg.sender] = totalSupply_;\n     emit Transfer(address(0), msg.sender, totalSupply_);\n   }\n }\n",
  "sourcePath": "C:\\Users\\Zack\\Documents\\GitHub\\ZackToken\\contracts\\ZackToken.sol",
  "compiler": {
    "name": "solc",
    "version": "0.4.23+commit.124ca40d.Emscripten.clang"
  },
  "schemaVersion": "2.0.0",
  "updatedAt": "2018-04-28T06:48:49.409Z"
}